{
  "address": "0x181b557bC9005d0933700f06622f6904dEa3029D",
  "abi": [
    {
      "anonymous": false,
      "inputs": [
        {
          "indexed": true,
          "internalType": "address",
          "name": "previousOwner",
          "type": "address"
        },
        {
          "indexed": true,
          "internalType": "address",
          "name": "newOwner",
          "type": "address"
        }
      ],
      "name": "OwnershipTransferred",
      "type": "event"
    },
    {
      "anonymous": false,
      "inputs": [
        {
          "indexed": true,
          "internalType": "address",
          "name": "_user",
          "type": "address"
        },
        {
          "indexed": false,
          "internalType": "uint256",
          "name": "_semaphoreId",
          "type": "uint256"
        }
      ],
      "name": "UserAdded",
      "type": "event"
    },
    {
      "anonymous": false,
      "inputs": [
        {
          "indexed": true,
          "internalType": "address",
          "name": "_user",
          "type": "address"
        }
      ],
      "name": "UserRemoved",
      "type": "event"
    },
    {
      "inputs": [
        {
          "internalType": "address",
          "name": "_user",
          "type": "address"
        },
        {
          "internalType": "uint256",
          "name": "_semaphoreId",
          "type": "uint256"
        }
      ],
      "name": "addUser",
      "outputs": [],
      "stateMutability": "nonpayable",
      "type": "function"
    },
    {
      "inputs": [
        {
          "internalType": "uint256",
          "name": "_semaphoreId",
          "type": "uint256"
        }
      ],
      "name": "isVerifiedSemaphoreId",
      "outputs": [
        {
          "internalType": "bool",
          "name": "",
          "type": "bool"
        }
      ],
      "stateMutability": "view",
      "type": "function"
    },
    {
      "inputs": [
        {
          "internalType": "address",
          "name": "_user",
          "type": "address"
        }
      ],
      "name": "isVerifiedUser",
      "outputs": [
        {
          "internalType": "bool",
          "name": "",
          "type": "bool"
        }
      ],
      "stateMutability": "view",
      "type": "function"
    },
    {
      "inputs": [],
      "name": "owner",
      "outputs": [
        {
          "internalType": "address",
          "name": "",
          "type": "address"
        }
      ],
      "stateMutability": "view",
      "type": "function"
    },
    {
      "inputs": [
        {
          "internalType": "address",
          "name": "_user",
          "type": "address"
        }
      ],
      "name": "removeUser",
      "outputs": [],
      "stateMutability": "nonpayable",
      "type": "function"
    },
    {
      "inputs": [],
      "name": "renounceOwnership",
      "outputs": [],
      "stateMutability": "nonpayable",
      "type": "function"
    },
    {
      "inputs": [
        {
          "internalType": "address",
          "name": "newOwner",
          "type": "address"
        }
      ],
      "name": "transferOwnership",
      "outputs": [],
      "stateMutability": "nonpayable",
      "type": "function"
    }
  ],
  "transactionHash": "0xb6f7197b875ff0f2cb98adb780c86f27685c5aff581709fd7d0f32eb708cfd89",
  "args": [],
  "numDeployments": 1,
  "solcInputHash": "da13a14ca12544a804c2d97d9c645497",
  "bytecode": "0x608060405234801561001057600080fd5b5061001a3361001f565b61006f565b600080546001600160a01b038381166001600160a01b0319831681178455604051919092169283917f8be0079c531659141344cd1fd0a4f28419497f9722a3daafe3b4186f6b6457e09190a35050565b61065b8061007e6000396000f3fe608060405234801561001057600080fd5b506004361061007d5760003560e01c80638da5cb5b1161005b5780638da5cb5b146100f0578063985751881461010b578063d30171931461011e578063f2fde38b1461013157600080fd5b80633da1c0c314610082578063445a6291146100c3578063715018a6146100e6575b600080fd5b6100ae6100903660046105c0565b6001600160a01b031660009081526001602052604090205460ff1690565b60405190151581526020015b60405180910390f35b6100ae6100d13660046105e2565b60009081526002602052604090205460ff1690565b6100ee610144565b005b6000546040516001600160a01b0390911681526020016100ba565b6100ee6101193660046105c0565b610158565b6100ee61012c3660046105fb565b610255565b6100ee61013f3660046105c0565b610481565b61014c6104fa565b6101566000610554565b565b6101606104fa565b6001600160a01b03811660009081526001602052604090205460ff166101df5760405162461bcd60e51b815260206004820152602960248201527f5573657252656769737472793a2055736572206973206e6f7420696e2074686560448201526820726567697374727960b81b60648201526084015b60405180910390fd5b6001600160a01b0381166000818152600360208181526040808420805460018452828620805460ff1990811690915581875260028552838720805490911690558686529390925290839055519092917fe9dce8c992623ce791725b21e857e33248d1f190a25b5168313420eebdaae99d91a25050565b61025d6104fa565b6001600160a01b0382166102be5760405162461bcd60e51b815260206004820152602260248201527f5573657252656769737472793a20557365722061646472657373206973207a65604482015261726f60f01b60648201526084016101d6565b806000036103195760405162461bcd60e51b815260206004820152602260248201527f5573657252656769737472793a2053656d6170686f7265204964206973207a65604482015261726f60f01b60648201526084016101d6565b6001600160a01b03821660009081526001602052604090205460ff161561038e5760405162461bcd60e51b815260206004820152602360248201527f5573657252656769737472793a205573657220616c72656164792076657269666044820152621a595960ea1b60648201526084016101d6565b60008181526002602052604090205460ff16156104035760405162461bcd60e51b815260206004820152602d60248201527f5573657252656769737472793a2053656d6170686f726520496420616c72656160448201526c191e481c9959da5cdd195c9959609a1b60648201526084016101d6565b6001600160a01b0382166000818152600160208181526040808420805460ff1990811685179091558685526002835281852080549091169093179092558383526003815291819020849055518381527f25ddd06f7eaeb83bb3fbcaa231d4b89e2d7bcd781043983661920061e755a7f0910160405180910390a25050565b6104896104fa565b6001600160a01b0381166104ee5760405162461bcd60e51b815260206004820152602660248201527f4f776e61626c653a206e6577206f776e657220697320746865207a65726f206160448201526564647265737360d01b60648201526084016101d6565b6104f781610554565b50565b6000546001600160a01b031633146101565760405162461bcd60e51b815260206004820181905260248201527f4f776e61626c653a2063616c6c6572206973206e6f7420746865206f776e657260448201526064016101d6565b600080546001600160a01b038381166001600160a01b0319831681178455604051919092169283917f8be0079c531659141344cd1fd0a4f28419497f9722a3daafe3b4186f6b6457e09190a35050565b80356001600160a01b03811681146105bb57600080fd5b919050565b6000602082840312156105d257600080fd5b6105db826105a4565b9392505050565b6000602082840312156105f457600080fd5b5035919050565b6000806040838503121561060e57600080fd5b610617836105a4565b94602093909301359350505056fea264697066735822122093037a44e2ad22e88511291da30403dab5fe7addc2867cd35d6ce80d77437ccd64736f6c63430008110033",
  "devdoc": {
    "details": "A simple semaphore user registry managed by a trusted entity.",
    "kind": "dev",
    "methods": {
      "addUser(address,uint256)": {
        "details": "Add verified unique user to the registry."
      },
      "isVerifiedSemaphoreId(uint256)": {
        "details": "Check if the semaphore Id is verified."
      },
      "isVerifiedUser(address)": {
        "details": "Check if the user is verified."
      },
      "owner()": {
        "details": "Returns the address of the current owner."
      },
      "removeUser(address)": {
        "details": "Remove user from the registry."
      },
      "renounceOwnership()": {
        "details": "Leaves the contract without owner. It will not be possible to call `onlyOwner` functions. Can only be called by the current owner. NOTE: Renouncing ownership will leave the contract without an owner, thereby disabling any functionality that is only available to the owner."
      },
      "transferOwnership(address)": {
        "details": "Transfers ownership of the contract to a new account (`newOwner`). Can only be called by the current owner."
      }
    },
    "version": 1
  },
  "userdoc": {
    "kind": "user",
    "methods": {},
    "version": 1
  },
  "storageLayout": {
    "storage": [
      {
        "astId": 7,
        "contract": "contracts/SemaphoreUserRegistry.sol:SemaphoreUserRegistry",
        "label": "_owner",
        "offset": 0,
        "slot": "0",
        "type": "t_address"
      },
      {
        "astId": 158,
        "contract": "contracts/SemaphoreUserRegistry.sol:SemaphoreUserRegistry",
        "label": "users",
        "offset": 0,
        "slot": "1",
        "type": "t_mapping(t_address,t_bool)"
      },
      {
        "astId": 162,
        "contract": "contracts/SemaphoreUserRegistry.sol:SemaphoreUserRegistry",
        "label": "semaphoreIds",
        "offset": 0,
        "slot": "2",
        "type": "t_mapping(t_uint256,t_bool)"
      },
      {
        "astId": 166,
        "contract": "contracts/SemaphoreUserRegistry.sol:SemaphoreUserRegistry",
        "label": "userToSemaphoreId",
        "offset": 0,
        "slot": "3",
        "type": "t_mapping(t_address,t_uint256)"
      }
    ],
    "types": {
      "t_address": {
        "encoding": "inplace",
        "label": "address",
        "numberOfBytes": "20"
      },
      "t_bool": {
        "encoding": "inplace",
        "label": "bool",
        "numberOfBytes": "1"
      },
      "t_mapping(t_address,t_bool)": {
        "encoding": "mapping",
        "key": "t_address",
        "label": "mapping(address => bool)",
        "numberOfBytes": "32",
        "value": "t_bool"
      },
      "t_mapping(t_address,t_uint256)": {
        "encoding": "mapping",
        "key": "t_address",
        "label": "mapping(address => uint256)",
        "numberOfBytes": "32",
        "value": "t_uint256"
      },
      "t_mapping(t_uint256,t_bool)": {
        "encoding": "mapping",
        "key": "t_uint256",
        "label": "mapping(uint256 => bool)",
        "numberOfBytes": "32",
        "value": "t_bool"
      },
      "t_uint256": {
        "encoding": "inplace",
        "label": "uint256",
        "numberOfBytes": "32"
      }
    }
  }
}